{
  "_format": "hh-sol-artifact-1",
  "contractName": "Domains",
  "sourceName": "contracts/domains.sol",
  "abi": [
    {
      "inputs": [
        {
          "internalType": "string",
          "name": "_tld",
          "type": "string"
        }
      ],
      "stateMutability": "payable",
      "type": "constructor"
    },
    {
      "anonymous": false,
      "inputs": [
        {
          "indexed": true,
          "internalType": "address",
          "name": "owner",
          "type": "address"
        },
        {
          "indexed": true,
          "internalType": "address",
          "name": "approved",
          "type": "address"
        },
        {
          "indexed": true,
          "internalType": "uint256",
          "name": "tokenId",
          "type": "uint256"
        }
      ],
      "name": "Approval",
      "type": "event"
    },
    {
      "anonymous": false,
      "inputs": [
        {
          "indexed": true,
          "internalType": "address",
          "name": "owner",
          "type": "address"
        },
        {
          "indexed": true,
          "internalType": "address",
          "name": "operator",
          "type": "address"
        },
        {
          "indexed": false,
          "internalType": "bool",
          "name": "approved",
          "type": "bool"
        }
      ],
      "name": "ApprovalForAll",
      "type": "event"
    },
    {
      "anonymous": false,
      "inputs": [
        {
          "indexed": true,
          "internalType": "address",
          "name": "from",
          "type": "address"
        },
        {
          "indexed": true,
          "internalType": "address",
          "name": "to",
          "type": "address"
        },
        {
          "indexed": true,
          "internalType": "uint256",
          "name": "tokenId",
          "type": "uint256"
        }
      ],
      "name": "Transfer",
      "type": "event"
    },
    {
      "inputs": [
        {
          "internalType": "address",
          "name": "to",
          "type": "address"
        },
        {
          "internalType": "uint256",
          "name": "tokenId",
          "type": "uint256"
        }
      ],
      "name": "approve",
      "outputs": [],
      "stateMutability": "nonpayable",
      "type": "function"
    },
    {
      "inputs": [
        {
          "internalType": "address",
          "name": "owner",
          "type": "address"
        }
      ],
      "name": "balanceOf",
      "outputs": [
        {
          "internalType": "uint256",
          "name": "",
          "type": "uint256"
        }
      ],
      "stateMutability": "view",
      "type": "function"
    },
    {
      "inputs": [
        {
          "internalType": "string",
          "name": "",
          "type": "string"
        }
      ],
      "name": "domains",
      "outputs": [
        {
          "internalType": "address",
          "name": "",
          "type": "address"
        }
      ],
      "stateMutability": "view",
      "type": "function"
    },
    {
      "inputs": [
        {
          "internalType": "string",
          "name": "name",
          "type": "string"
        }
      ],
      "name": "getAddress",
      "outputs": [
        {
          "internalType": "address",
          "name": "",
          "type": "address"
        }
      ],
      "stateMutability": "view",
      "type": "function"
    },
    {
      "inputs": [],
      "name": "getAllNames",
      "outputs": [
        {
          "internalType": "string[]",
          "name": "",
          "type": "string[]"
        }
      ],
      "stateMutability": "view",
      "type": "function"
    },
    {
      "inputs": [
        {
          "internalType": "uint256",
          "name": "tokenId",
          "type": "uint256"
        }
      ],
      "name": "getApproved",
      "outputs": [
        {
          "internalType": "address",
          "name": "",
          "type": "address"
        }
      ],
      "stateMutability": "view",
      "type": "function"
    },
    {
      "inputs": [
        {
          "internalType": "string",
          "name": "name",
          "type": "string"
        }
      ],
      "name": "getRecord",
      "outputs": [
        {
          "internalType": "string",
          "name": "",
          "type": "string"
        }
      ],
      "stateMutability": "view",
      "type": "function"
    },
    {
      "inputs": [
        {
          "internalType": "address",
          "name": "owner",
          "type": "address"
        },
        {
          "internalType": "address",
          "name": "operator",
          "type": "address"
        }
      ],
      "name": "isApprovedForAll",
      "outputs": [
        {
          "internalType": "bool",
          "name": "",
          "type": "bool"
        }
      ],
      "stateMutability": "view",
      "type": "function"
    },
    {
      "inputs": [],
      "name": "isOwner",
      "outputs": [
        {
          "internalType": "bool",
          "name": "",
          "type": "bool"
        }
      ],
      "stateMutability": "view",
      "type": "function"
    },
    {
      "inputs": [],
      "name": "name",
      "outputs": [
        {
          "internalType": "string",
          "name": "",
          "type": "string"
        }
      ],
      "stateMutability": "view",
      "type": "function"
    },
    {
      "inputs": [
        {
          "internalType": "uint256",
          "name": "",
          "type": "uint256"
        }
      ],
      "name": "names",
      "outputs": [
        {
          "internalType": "string",
          "name": "",
          "type": "string"
        }
      ],
      "stateMutability": "view",
      "type": "function"
    },
    {
      "inputs": [],
      "name": "owner",
      "outputs": [
        {
          "internalType": "address payable",
          "name": "",
          "type": "address"
        }
      ],
      "stateMutability": "view",
      "type": "function"
    },
    {
      "inputs": [
        {
          "internalType": "uint256",
          "name": "tokenId",
          "type": "uint256"
        }
      ],
      "name": "ownerOf",
      "outputs": [
        {
          "internalType": "address",
          "name": "",
          "type": "address"
        }
      ],
      "stateMutability": "view",
      "type": "function"
    },
    {
      "inputs": [
        {
          "internalType": "string",
          "name": "name",
          "type": "string"
        }
      ],
      "name": "price",
      "outputs": [
        {
          "internalType": "uint256",
          "name": "",
          "type": "uint256"
        }
      ],
      "stateMutability": "pure",
      "type": "function"
    },
    {
      "inputs": [
        {
          "internalType": "string",
          "name": "",
          "type": "string"
        }
      ],
      "name": "records",
      "outputs": [
        {
          "internalType": "string",
          "name": "",
          "type": "string"
        }
      ],
      "stateMutability": "view",
      "type": "function"
    },
    {
      "inputs": [
        {
          "internalType": "string",
          "name": "name",
          "type": "string"
        }
      ],
      "name": "register",
      "outputs": [],
      "stateMutability": "payable",
      "type": "function"
    },
    {
      "inputs": [
        {
          "internalType": "address",
          "name": "from",
          "type": "address"
        },
        {
          "internalType": "address",
          "name": "to",
          "type": "address"
        },
        {
          "internalType": "uint256",
          "name": "tokenId",
          "type": "uint256"
        }
      ],
      "name": "safeTransferFrom",
      "outputs": [],
      "stateMutability": "nonpayable",
      "type": "function"
    },
    {
      "inputs": [
        {
          "internalType": "address",
          "name": "from",
          "type": "address"
        },
        {
          "internalType": "address",
          "name": "to",
          "type": "address"
        },
        {
          "internalType": "uint256",
          "name": "tokenId",
          "type": "uint256"
        },
        {
          "internalType": "bytes",
          "name": "data",
          "type": "bytes"
        }
      ],
      "name": "safeTransferFrom",
      "outputs": [],
      "stateMutability": "nonpayable",
      "type": "function"
    },
    {
      "inputs": [
        {
          "internalType": "address",
          "name": "operator",
          "type": "address"
        },
        {
          "internalType": "bool",
          "name": "approved",
          "type": "bool"
        }
      ],
      "name": "setApprovalForAll",
      "outputs": [],
      "stateMutability": "nonpayable",
      "type": "function"
    },
    {
      "inputs": [
        {
          "internalType": "string",
          "name": "name",
          "type": "string"
        },
        {
          "internalType": "string",
          "name": "record",
          "type": "string"
        }
      ],
      "name": "setRecord",
      "outputs": [],
      "stateMutability": "nonpayable",
      "type": "function"
    },
    {
      "inputs": [
        {
          "internalType": "bytes4",
          "name": "interfaceId",
          "type": "bytes4"
        }
      ],
      "name": "supportsInterface",
      "outputs": [
        {
          "internalType": "bool",
          "name": "",
          "type": "bool"
        }
      ],
      "stateMutability": "view",
      "type": "function"
    },
    {
      "inputs": [],
      "name": "symbol",
      "outputs": [
        {
          "internalType": "string",
          "name": "",
          "type": "string"
        }
      ],
      "stateMutability": "view",
      "type": "function"
    },
    {
      "inputs": [],
      "name": "tld",
      "outputs": [
        {
          "internalType": "string",
          "name": "",
          "type": "string"
        }
      ],
      "stateMutability": "view",
      "type": "function"
    },
    {
      "inputs": [
        {
          "internalType": "uint256",
          "name": "tokenId",
          "type": "uint256"
        }
      ],
      "name": "tokenURI",
      "outputs": [
        {
          "internalType": "string",
          "name": "",
          "type": "string"
        }
      ],
      "stateMutability": "view",
      "type": "function"
    },
    {
      "inputs": [
        {
          "internalType": "address",
          "name": "from",
          "type": "address"
        },
        {
          "internalType": "address",
          "name": "to",
          "type": "address"
        },
        {
          "internalType": "uint256",
          "name": "tokenId",
          "type": "uint256"
        }
      ],
      "name": "transferFrom",
      "outputs": [],
      "stateMutability": "nonpayable",
      "type": "function"
    },
    {
      "inputs": [],
      "name": "withdraw",
      "outputs": [],
      "stateMutability": "nonpayable",
      "type": "function"
    }
  ],
  "bytecode": "0x6080604052604051806108a0016040528061086b815260200162004e3361086b91396009908051906020019062000038929190620002c8565b506040518060400160405280600d81526020017f3c2f746578743e3c2f7376673e00000000000000000000000000000000000000815250600a908051906020019062000086929190620002c8565b506040516200569e3803806200569e8339818101604052810190620000ac919062000515565b6040518060400160405280601281526020017f424c4f4343204e616d65205365727669636500000000000000000000000000008152506040518060400160405280600581526020017f424c4f4343000000000000000000000000000000000000000000000000000000815250816000908051906020019062000130929190620002c8565b50806001908051906020019062000149929190620002c8565b50505033600e60006101000a81548173ffffffffffffffffffffffffffffffffffffffff021916908373ffffffffffffffffffffffffffffffffffffffff1602179055508060089080519060200190620001a5929190620002c8565b50620001f26040518060400160405280601881526020017f2573206e616d652073657276696365206465706c6f796564000000000000000081525082620001f960201b6200199f1760201c565b5062000663565b6200029b828260405160240162000212929190620005c3565b6040516020818303038152906040527f4b5c4277000000000000000000000000000000000000000000000000000000007bffffffffffffffffffffffffffffffffffffffffffffffffffffffff19166020820180517bffffffffffffffffffffffffffffffffffffffffffffffffffffffff83818316178352505050506200029f60201b60201c565b5050565b60008151905060006a636f6e736f6c652e6c6f679050602083016000808483855afa5050505050565b828054620002d6906200062d565b90600052602060002090601f016020900481019282620002fa576000855562000346565b82601f106200031557805160ff191683800117855562000346565b8280016001018555821562000346579182015b828111156200034557825182559160200191906001019062000328565b5b50905062000355919062000359565b5090565b5b80821115620003745760008160009055506001016200035a565b5090565b6000604051905090565b600080fd5b600080fd5b600080fd5b600080fd5b6000601f19601f8301169050919050565b7f4e487b7100000000000000000000000000000000000000000000000000000000600052604160045260246000fd5b620003e18262000396565b810181811067ffffffffffffffff82111715620004035762000402620003a7565b5b80604052505050565b60006200041862000378565b9050620004268282620003d6565b919050565b600067ffffffffffffffff821115620004495762000448620003a7565b5b620004548262000396565b9050602081019050919050565b60005b838110156200048157808201518184015260208101905062000464565b8381111562000491576000848401525b50505050565b6000620004ae620004a8846200042b565b6200040c565b905082815260208101848484011115620004cd57620004cc62000391565b5b620004da84828562000461565b509392505050565b600082601f830112620004fa57620004f96200038c565b5b81516200050c84826020860162000497565b91505092915050565b6000602082840312156200052e576200052d62000382565b5b600082015167ffffffffffffffff8111156200054f576200054e62000387565b5b6200055d84828501620004e2565b91505092915050565b600081519050919050565b600082825260208201905092915050565b60006200058f8262000566565b6200059b818562000571565b9350620005ad81856020860162000461565b620005b88162000396565b840191505092915050565b60006040820190508181036000830152620005df818562000582565b90508181036020830152620005f5818462000582565b90509392505050565b7f4e487b7100000000000000000000000000000000000000000000000000000000600052602260045260246000fd5b600060028204905060018216806200064657607f821691505b602082108114156200065d576200065c620005fe565b5b50919050565b6147c080620006736000396000f3fe6080604052600436106101815760003560e01c806370a08231116100d1578063bf40fac11161008a578063e985e9c511610064578063e985e9c5146105cc578063f2c298be14610609578063fb825e5f14610625578063fe2c61981461065057610181565b8063bf40fac114610529578063c1880a9814610566578063c87b56dd1461058f57610181565b806370a08231146104195780638da5cb5b146104565780638f32d59b1461048157806395d89b41146104ac578063a22cb465146104d7578063b88d4fde1461050057610181565b8063264492351161013e57806342842e0e1161011857806342842e0e146103395780634622ab0314610362578063541e771d1461039f5780636352211e146103dc57610181565b806326449235146102ba5780632d551432146102f75780633ccfd60b1461032257610181565b806301ffc9a71461018657806306fdde03146101c3578063081812fc146101ee578063095ea7b31461022b57806311dd88451461025457806323b872dd14610291575b600080fd5b34801561019257600080fd5b506101ad60048036038101906101a89190612e13565b61068d565b6040516101ba9190612e5b565b60405180910390f35b3480156101cf57600080fd5b506101d861076f565b6040516101e59190612f0f565b60405180910390f35b3480156101fa57600080fd5b5061021560048036038101906102109190612f67565b610801565b6040516102229190612fd5565b60405180910390f35b34801561023757600080fd5b50610252600480360381019061024d919061301c565b610847565b005b34801561026057600080fd5b5061027b600480360381019061027691906130c1565b61095f565b6040516102889190612f0f565b60405180910390f35b34801561029d57600080fd5b506102b860048036038101906102b3919061310e565b610a12565b005b3480156102c657600080fd5b506102e160048036038101906102dc9190613291565b610a72565b6040516102ee9190612fd5565b60405180910390f35b34801561030357600080fd5b5061030c610abb565b6040516103199190612f0f565b60405180910390f35b34801561032e57600080fd5b50610337610b49565b005b34801561034557600080fd5b50610360600480360381019061035b919061310e565b610c0f565b005b34801561036e57600080fd5b5061038960048036038101906103849190612f67565b610c2f565b6040516103969190612f0f565b60405180910390f35b3480156103ab57600080fd5b506103c660048036038101906103c19190613291565b610ccf565b6040516103d39190612f0f565b60405180910390f35b3480156103e857600080fd5b5061040360048036038101906103fe9190612f67565b610d85565b6040516104109190612fd5565b60405180910390f35b34801561042557600080fd5b50610440600480360381019061043b91906132da565b610e37565b60405161044d9190613316565b60405180910390f35b34801561046257600080fd5b5061046b610eef565b6040516104789190613352565b60405180910390f35b34801561048d57600080fd5b50610496610f15565b6040516104a39190612e5b565b60405180910390f35b3480156104b857600080fd5b506104c1610f6d565b6040516104ce9190612f0f565b60405180910390f35b3480156104e357600080fd5b506104fe60048036038101906104f99190613399565b610fff565b005b34801561050c57600080fd5b506105276004803603810190610522919061347a565b611015565b005b34801561053557600080fd5b50610550600480360381019061054b91906130c1565b611077565b60405161055d9190612fd5565b60405180910390f35b34801561057257600080fd5b5061058d600480360381019061058891906134fd565b6110c2565b005b34801561059b57600080fd5b506105b660048036038101906105b19190612f67565b611170565b6040516105c39190612f0f565b60405180910390f35b3480156105d857600080fd5b506105f360048036038101906105ee919061357e565b611283565b6040516106009190612e5b565b60405180910390f35b610623600480360381019061061e91906130c1565b611317565b005b34801561063157600080fd5b5061063a61171b565b60405161064791906136ca565b60405180910390f35b34801561065c57600080fd5b50610677600480360381019061067291906130c1565b6118f9565b6040516106849190613316565b60405180910390f35b60007f80ac58cd000000000000000000000000000000000000000000000000000000007bffffffffffffffffffffffffffffffffffffffffffffffffffffffff1916827bffffffffffffffffffffffffffffffffffffffffffffffffffffffff1916148061075857507f5b5e139f000000000000000000000000000000000000000000000000000000007bffffffffffffffffffffffffffffffffffffffffffffffffffffffff1916827bffffffffffffffffffffffffffffffffffffffffffffffffffffffff1916145b80610768575061076782611a3b565b5b9050919050565b60606000805461077e9061371b565b80601f01602080910402602001604051908101604052809291908181526020018280546107aa9061371b565b80156107f75780601f106107cc576101008083540402835291602001916107f7565b820191906000526020600020905b8154815290600101906020018083116107da57829003601f168201915b5050505050905090565b600061080c82611aa5565b6004600083815260200190815260200160002060009054906101000a900473ffffffffffffffffffffffffffffffffffffffff169050919050565b600061085282610d85565b90508073ffffffffffffffffffffffffffffffffffffffff168373ffffffffffffffffffffffffffffffffffffffff1614156108c3576040517f08c379a00000000000000000000000000000000000000000000000000000000081526004016108ba906137bf565b60405180910390fd5b8073ffffffffffffffffffffffffffffffffffffffff166108e2611af0565b73ffffffffffffffffffffffffffffffffffffffff16148061091157506109108161090b611af0565b611283565b5b610950576040517f08c379a000000000000000000000000000000000000000000000000000000000815260040161094790613851565b60405180910390fd5b61095a8383611af8565b505050565b6060600c83836040516109739291906138a1565b9081526020016040518091039020805461098c9061371b565b80601f01602080910402602001604051908101604052809291908181526020018280546109b89061371b565b8015610a055780601f106109da57610100808354040283529160200191610a05565b820191906000526020600020905b8154815290600101906020018083116109e857829003601f168201915b5050505050905092915050565b610a23610a1d611af0565b82611bb1565b610a62576040517f08c379a0000000000000000000000000000000000000000000000000000000008152600401610a599061392c565b60405180910390fd5b610a6d838383611c46565b505050565b600b818051602081018201805184825260208301602085012081835280955050505050506000915054906101000a900473ffffffffffffffffffffffffffffffffffffffff1681565b60088054610ac89061371b565b80601f0160208091040260200160405190810160405280929190818152602001828054610af49061371b565b8015610b415780601f10610b1657610100808354040283529160200191610b41565b820191906000526020600020905b815481529060010190602001808311610b2457829003601f168201915b505050505081565b610b51610f15565b610b5a57600080fd5b600047905060003373ffffffffffffffffffffffffffffffffffffffff1682604051610b859061397d565b60006040518083038185875af1925050503d8060008114610bc2576040519150601f19603f3d011682016040523d82523d6000602084013e610bc7565b606091505b5050905080610c0b576040517f08c379a0000000000000000000000000000000000000000000000000000000008152600401610c02906139de565b60405180910390fd5b5050565b610c2a83838360405180602001604052806000815250611015565b505050565b600d6020528060005260406000206000915090508054610c4e9061371b565b80601f0160208091040260200160405190810160405280929190818152602001828054610c7a9061371b565b8015610cc75780601f10610c9c57610100808354040283529160200191610cc7565b820191906000526020600020905b815481529060010190602001808311610caa57829003601f168201915b505050505081565b600c818051602081018201805184825260208301602085012081835280955050505050506000915090508054610d049061371b565b80601f0160208091040260200160405190810160405280929190818152602001828054610d309061371b565b8015610d7d5780601f10610d5257610100808354040283529160200191610d7d565b820191906000526020600020905b815481529060010190602001808311610d6057829003601f168201915b505050505081565b6000806002600084815260200190815260200160002060009054906101000a900473ffffffffffffffffffffffffffffffffffffffff169050600073ffffffffffffffffffffffffffffffffffffffff168173ffffffffffffffffffffffffffffffffffffffff161415610e2e576040517f08c379a0000000000000000000000000000000000000000000000000000000008152600401610e2590613a4a565b60405180910390fd5b80915050919050565b60008073ffffffffffffffffffffffffffffffffffffffff168273ffffffffffffffffffffffffffffffffffffffff161415610ea8576040517f08c379a0000000000000000000000000000000000000000000000000000000008152600401610e9f90613adc565b60405180910390fd5b600360008373ffffffffffffffffffffffffffffffffffffffff1673ffffffffffffffffffffffffffffffffffffffff168152602001908152602001600020549050919050565b600e60009054906101000a900473ffffffffffffffffffffffffffffffffffffffff1681565b6000600e60009054906101000a900473ffffffffffffffffffffffffffffffffffffffff1673ffffffffffffffffffffffffffffffffffffffff163373ffffffffffffffffffffffffffffffffffffffff1614905090565b606060018054610f7c9061371b565b80601f0160208091040260200160405190810160405280929190818152602001828054610fa89061371b565b8015610ff55780601f10610fca57610100808354040283529160200191610ff5565b820191906000526020600020905b815481529060010190602001808311610fd857829003601f168201915b5050505050905090565b61101161100a611af0565b8383611ead565b5050565b611026611020611af0565b83611bb1565b611065576040517f08c379a000000000000000000000000000000000000000000000000000000000815260040161105c9061392c565b60405180910390fd5b6110718484848461201a565b50505050565b6000600b838360405161108b9291906138a1565b908152602001604051809103902060009054906101000a900473ffffffffffffffffffffffffffffffffffffffff16905092915050565b3373ffffffffffffffffffffffffffffffffffffffff16600b85856040516110eb9291906138a1565b908152602001604051809103902060009054906101000a900473ffffffffffffffffffffffffffffffffffffffff1673ffffffffffffffffffffffffffffffffffffffff161461113a57600080fd5b8181600c868660405161114e9291906138a1565b90815260200160405180910390209190611169929190612c7e565b5050505050565b606061117b82611aa5565b600060066000848152602001908152602001600020805461119b9061371b565b80601f01602080910402602001604051908101604052809291908181526020018280546111c79061371b565b80156112145780601f106111e957610100808354040283529160200191611214565b820191906000526020600020905b8154815290600101906020018083116111f757829003601f168201915b505050505090506000611225612076565b905060008151141561123b57819250505061127e565b600082511115611270578082604051602001611258929190613b2d565b6040516020818303038152906040529250505061127e565b6112798461208d565b925050505b919050565b6000600560008473ffffffffffffffffffffffffffffffffffffffff1673ffffffffffffffffffffffffffffffffffffffff16815260200190815260200160002060008373ffffffffffffffffffffffffffffffffffffffff1673ffffffffffffffffffffffffffffffffffffffff16815260200190815260200160002060009054906101000a900460ff16905092915050565b600073ffffffffffffffffffffffffffffffffffffffff16600b83836040516113419291906138a1565b908152602001604051809103902060009054906101000a900473ffffffffffffffffffffffffffffffffffffffff1673ffffffffffffffffffffffffffffffffffffffff161461139057600080fd5b600061139c83836118f9565b9050803410156113e1576040517f08c379a00000000000000000000000000000000000000000000000000000000081526004016113d890613b9d565b60405180910390fd5b6000838360086040516020016113f993929190613c9d565b60405160208183030381529060405290506000600982600a60405160200161142393929190613cce565b6040516020818303038152906040529050600061144060076120f5565b9050600061149187878080601f016020809104026020016040519081016040528093929190818152602001838380828437600081840152601f19601f82011690508083019250505050505050612103565b9050600061149e826122b8565b90506115926040518060600160405280603181526020016146e16031913989898080601f016020809104026020016040519081016040528093929190818152602001838380828437600081840152601f19601f820116905080830192505050505050506008805461150e9061371b565b80601f016020809104026020016040519081016040528092919081815260200182805461153a9061371b565b80156115875780601f1061155c57610100808354040283529160200191611587565b820191906000526020600020905b81548152906001019060200180831161156a57829003601f168201915b505050505086612419565b60006115c8866115a1876124bb565b846040516020016115b493929190613e7b565b6040516020818303038152906040526124bb565b90506000816040516020016115dd9190613f24565b604051602081830303815290604052905061160f6040518060600160405280603981526020016146a86039913961261f565b61164e6040518060400160405280600e81526020017f46696e616c20746f6b656e5552490000000000000000000000000000000000008152508261199f565b61166f6040518060600160405280603981526020016147126039913961261f565b61167933866126b8565b61168385826126d6565b33600b8b8b6040516116969291906138a1565b908152602001604051809103902060006101000a81548173ffffffffffffffffffffffffffffffffffffffff021916908373ffffffffffffffffffffffffffffffffffffffff1602179055508989600d60008881526020019081526020016000209190611704929190612c7e565b5061170f600761274a565b50505050505050505050565b606061175b6040518060400160405280601f81526020017f47657474696e6720616c6c206e616d65732066726f6d20636f6e74726163740081525061261f565b600061176760076120f5565b67ffffffffffffffff8111156117805761177f613166565b5b6040519080825280602002602001820160405280156117b357816020015b606081526020019060019003908161179e5790505b50905060005b6117c360076120f5565b8110156118f157600d600082815260200190815260200160002080546117e89061371b565b80601f01602080910402602001604051908101604052809291908181526020018280546118149061371b565b80156118615780601f1061183657610100808354040283529160200191611861565b820191906000526020600020905b81548152906001019060200180831161184457829003601f168201915b505050505082828151811061187957611878613f46565b5b60200260200101819052506118de6040518060400160405280601781526020017f4e616d6520666f7220746f6b656e202564206973202573000000000000000000815250828484815181106118d1576118d0613f46565b5b6020026020010151612760565b80806118e990613fa4565b9150506117b9565b508091505090565b60008061194984848080601f016020809104026020016040519081016040528093929190818152602001838380828437600081840152601f19601f82011690508083019250505050505050612103565b90506000811161195857600080fd5b6003811415611972576702c68af0bb140000915050611999565b600481141561198c5767016345785d8a0000915050611999565b67016345785d8a00009150505b92915050565b611a3782826040516024016119b5929190613fed565b6040516020818303038152906040527f4b5c4277000000000000000000000000000000000000000000000000000000007bffffffffffffffffffffffffffffffffffffffffffffffffffffffff19166020820180517bffffffffffffffffffffffffffffffffffffffffffffffffffffffff83818316178352505050506127ff565b5050565b60007f01ffc9a7000000000000000000000000000000000000000000000000000000007bffffffffffffffffffffffffffffffffffffffffffffffffffffffff1916827bffffffffffffffffffffffffffffffffffffffffffffffffffffffff1916149050919050565b611aae81612828565b611aed576040517f08c379a0000000000000000000000000000000000000000000000000000000008152600401611ae490613a4a565b60405180910390fd5b50565b600033905090565b816004600083815260200190815260200160002060006101000a81548173ffffffffffffffffffffffffffffffffffffffff021916908373ffffffffffffffffffffffffffffffffffffffff160217905550808273ffffffffffffffffffffffffffffffffffffffff16611b6b83610d85565b73ffffffffffffffffffffffffffffffffffffffff167f8c5be1e5ebec7d5bd14f71427d1e84f3dd0314c0f7b2291e5b200ac8c7c3b92560405160405180910390a45050565b600080611bbd83610d85565b90508073ffffffffffffffffffffffffffffffffffffffff168473ffffffffffffffffffffffffffffffffffffffff161480611bff5750611bfe8185611283565b5b80611c3d57508373ffffffffffffffffffffffffffffffffffffffff16611c2584610801565b73ffffffffffffffffffffffffffffffffffffffff16145b91505092915050565b8273ffffffffffffffffffffffffffffffffffffffff16611c6682610d85565b73ffffffffffffffffffffffffffffffffffffffff1614611cbc576040517f08c379a0000000000000000000000000000000000000000000000000000000008152600401611cb390614096565b60405180910390fd5b600073ffffffffffffffffffffffffffffffffffffffff168273ffffffffffffffffffffffffffffffffffffffff161415611d2c576040517f08c379a0000000000000000000000000000000000000000000000000000000008152600401611d2390614128565b60405180910390fd5b611d37838383612894565b611d42600082611af8565b6001600360008573ffffffffffffffffffffffffffffffffffffffff1673ffffffffffffffffffffffffffffffffffffffff1681526020019081526020016000206000828254611d929190614148565b925050819055506001600360008473ffffffffffffffffffffffffffffffffffffffff1673ffffffffffffffffffffffffffffffffffffffff1681526020019081526020016000206000828254611de9919061417c565b92505081905550816002600083815260200190815260200160002060006101000a81548173ffffffffffffffffffffffffffffffffffffffff021916908373ffffffffffffffffffffffffffffffffffffffff160217905550808273ffffffffffffffffffffffffffffffffffffffff168473ffffffffffffffffffffffffffffffffffffffff167fddf252ad1be2c89b69c2b068fc378daa952ba7f163c4a11628f55a4df523b3ef60405160405180910390a4611ea8838383612899565b505050565b8173ffffffffffffffffffffffffffffffffffffffff168373ffffffffffffffffffffffffffffffffffffffff161415611f1c576040517f08c379a0000000000000000000000000000000000000000000000000000000008152600401611f139061421e565b60405180910390fd5b80600560008573ffffffffffffffffffffffffffffffffffffffff1673ffffffffffffffffffffffffffffffffffffffff16815260200190815260200160002060008473ffffffffffffffffffffffffffffffffffffffff1673ffffffffffffffffffffffffffffffffffffffff16815260200190815260200160002060006101000a81548160ff0219169083151502179055508173ffffffffffffffffffffffffffffffffffffffff168373ffffffffffffffffffffffffffffffffffffffff167f17307eab39ab6107e8899845ad3d59bd9653f200f220920489ca2b5937696c318360405161200d9190612e5b565b60405180910390a3505050565b612025848484611c46565b6120318484848461289e565b612070576040517f08c379a0000000000000000000000000000000000000000000000000000000008152600401612067906142b0565b60405180910390fd5b50505050565b606060405180602001604052806000815250905090565b606061209882611aa5565b60006120a2612076565b905060008151116120c257604051806020016040528060008152506120ed565b806120cc846122b8565b6040516020016120dd929190613b2d565b6040516020818303038152906040525b915050919050565b600081600001549050919050565b60008060008084519050600092505b808210156122ad57600085838151811061212f5761212e613f46565b5b602001015160f81c60f81b9050608060f81b817effffffffffffffffffffffffffffffffffffffffffffffffffffffffffffff1916101561217e57600183612177919061417c565b9250612299565b60e060f81b817effffffffffffffffffffffffffffffffffffffffffffffffffffffffffffff191610156121c0576002836121b9919061417c565b9250612298565b60f060f81b817effffffffffffffffffffffffffffffffffffffffffffffffffffffffffffff19161015612202576003836121fb919061417c565b9250612297565b60f8801b817effffffffffffffffffffffffffffffffffffffffffffffffffffffffffffff191610156122435760048361223c919061417c565b9250612296565b60fc60f81b817effffffffffffffffffffffffffffffffffffffffffffffffffffffffffffff191610156122855760058361227e919061417c565b9250612295565b600683612292919061417c565b92505b5b5b5b5b5082806122a590613fa4565b935050612112565b829350505050919050565b60606000821415612300576040518060400160405280600181526020017f30000000000000000000000000000000000000000000000000000000000000008152509050612414565b600082905060005b6000821461233257808061231b90613fa4565b915050600a8261232b91906142ff565b9150612308565b60008167ffffffffffffffff81111561234e5761234d613166565b5b6040519080825280601f01601f1916602001820160405280156123805781602001600182028036833780820191505090505b5090505b6000851461240d576001826123999190614148565b9150600a856123a89190614330565b60306123b4919061417c565b60f81b8183815181106123ca576123c9613f46565b5b60200101907effffffffffffffffffffffffffffffffffffffffffffffffffffffffffffff1916908160001a905350600a8561240691906142ff565b9450612384565b8093505050505b919050565b6124b5848484846040516024016124339493929190614361565b6040516020818303038152906040527f8eafb02b000000000000000000000000000000000000000000000000000000007bffffffffffffffffffffffffffffffffffffffffffffffffffffffff19166020820180517bffffffffffffffffffffffffffffffffffffffffffffffffffffffff83818316178352505050506127ff565b50505050565b60606000825114156124de5760405180602001604052806000815250905061261a565b600060405180606001604052806040815260200161474b604091399050600060036002855161250d919061417c565b61251791906142ff565b600461252391906143bb565b67ffffffffffffffff81111561253c5761253b613166565b5b6040519080825280601f01601f19166020018201604052801561256e5781602001600182028036833780820191505090505b509050600182016020820185865187015b808210156125da576003820191508151603f8160121c168501518453600184019350603f81600c1c168501518453600184019350603f8160061c168501518453600184019350603f811685015184536001840193505061257f565b50506003865106600181146125f6576002811461260957612611565b603d6001830353603d6002830353612611565b603d60018303535b50505080925050505b919050565b6126b5816040516024016126339190612f0f565b6040516020818303038152906040527f41304fac000000000000000000000000000000000000000000000000000000007bffffffffffffffffffffffffffffffffffffffffffffffffffffffff19166020820180517bffffffffffffffffffffffffffffffffffffffffffffffffffffffff83818316178352505050506127ff565b50565b6126d2828260405180602001604052806000815250612a26565b5050565b6126df82612828565b61271e576040517f08c379a000000000000000000000000000000000000000000000000000000000815260040161271590614487565b60405180910390fd5b80600660008481526020019081526020016000209080519060200190612745929190612d04565b505050565b6001816000016000828254019250508190555050565b6127fa838383604051602401612778939291906144a7565b6040516020818303038152906040527f5970e089000000000000000000000000000000000000000000000000000000007bffffffffffffffffffffffffffffffffffffffffffffffffffffffff19166020820180517bffffffffffffffffffffffffffffffffffffffffffffffffffffffff83818316178352505050506127ff565b505050565b60008151905060006a636f6e736f6c652e6c6f679050602083016000808483855afa5050505050565b60008073ffffffffffffffffffffffffffffffffffffffff166002600084815260200190815260200160002060009054906101000a900473ffffffffffffffffffffffffffffffffffffffff1673ffffffffffffffffffffffffffffffffffffffff1614159050919050565b505050565b505050565b60006128bf8473ffffffffffffffffffffffffffffffffffffffff16612a81565b15612a19578373ffffffffffffffffffffffffffffffffffffffff1663150b7a026128e8611af0565b8786866040518563ffffffff1660e01b815260040161290a9493929190614541565b6020604051808303816000875af192505050801561294657506040513d601f19601f8201168201806040525081019061294391906145a2565b60015b6129c9573d8060008114612976576040519150601f19603f3d011682016040523d82523d6000602084013e61297b565b606091505b506000815114156129c1576040517f08c379a00000000000000000000000000000000000000000000000000000000081526004016129b8906142b0565b60405180910390fd5b805181602001fd5b63150b7a0260e01b7bffffffffffffffffffffffffffffffffffffffffffffffffffffffff1916817bffffffffffffffffffffffffffffffffffffffffffffffffffffffff191614915050612a1e565b600190505b949350505050565b612a308383612aa4565b612a3d600084848461289e565b612a7c576040517f08c379a0000000000000000000000000000000000000000000000000000000008152600401612a73906142b0565b60405180910390fd5b505050565b6000808273ffffffffffffffffffffffffffffffffffffffff163b119050919050565b600073ffffffffffffffffffffffffffffffffffffffff168273ffffffffffffffffffffffffffffffffffffffff161415612b14576040517f08c379a0000000000000000000000000000000000000000000000000000000008152600401612b0b9061461b565b60405180910390fd5b612b1d81612828565b15612b5d576040517f08c379a0000000000000000000000000000000000000000000000000000000008152600401612b5490614687565b60405180910390fd5b612b6960008383612894565b6001600360008473ffffffffffffffffffffffffffffffffffffffff1673ffffffffffffffffffffffffffffffffffffffff1681526020019081526020016000206000828254612bb9919061417c565b92505081905550816002600083815260200190815260200160002060006101000a81548173ffffffffffffffffffffffffffffffffffffffff021916908373ffffffffffffffffffffffffffffffffffffffff160217905550808273ffffffffffffffffffffffffffffffffffffffff16600073ffffffffffffffffffffffffffffffffffffffff167fddf252ad1be2c89b69c2b068fc378daa952ba7f163c4a11628f55a4df523b3ef60405160405180910390a4612c7a60008383612899565b5050565b828054612c8a9061371b565b90600052602060002090601f016020900481019282612cac5760008555612cf3565b82601f10612cc557803560ff1916838001178555612cf3565b82800160010185558215612cf3579182015b82811115612cf2578235825591602001919060010190612cd7565b5b509050612d009190612d8a565b5090565b828054612d109061371b565b90600052602060002090601f016020900481019282612d325760008555612d79565b82601f10612d4b57805160ff1916838001178555612d79565b82800160010185558215612d79579182015b82811115612d78578251825591602001919060010190612d5d565b5b509050612d869190612d8a565b5090565b5b80821115612da3576000816000905550600101612d8b565b5090565b6000604051905090565b600080fd5b600080fd5b60007fffffffff0000000000000000000000000000000000000000000000000000000082169050919050565b612df081612dbb565b8114612dfb57600080fd5b50565b600081359050612e0d81612de7565b92915050565b600060208284031215612e2957612e28612db1565b5b6000612e3784828501612dfe565b91505092915050565b60008115159050919050565b612e5581612e40565b82525050565b6000602082019050612e706000830184612e4c565b92915050565b600081519050919050565b600082825260208201905092915050565b60005b83811015612eb0578082015181840152602081019050612e95565b83811115612ebf576000848401525b50505050565b6000601f19601f8301169050919050565b6000612ee182612e76565b612eeb8185612e81565b9350612efb818560208601612e92565b612f0481612ec5565b840191505092915050565b60006020820190508181036000830152612f298184612ed6565b905092915050565b6000819050919050565b612f4481612f31565b8114612f4f57600080fd5b50565b600081359050612f6181612f3b565b92915050565b600060208284031215612f7d57612f7c612db1565b5b6000612f8b84828501612f52565b91505092915050565b600073ffffffffffffffffffffffffffffffffffffffff82169050919050565b6000612fbf82612f94565b9050919050565b612fcf81612fb4565b82525050565b6000602082019050612fea6000830184612fc6565b92915050565b612ff981612fb4565b811461300457600080fd5b50565b60008135905061301681612ff0565b92915050565b6000806040838503121561303357613032612db1565b5b600061304185828601613007565b925050602061305285828601612f52565b9150509250929050565b600080fd5b600080fd5b600080fd5b60008083601f8401126130815761308061305c565b5b8235905067ffffffffffffffff81111561309e5761309d613061565b5b6020830191508360018202830111156130ba576130b9613066565b5b9250929050565b600080602083850312156130d8576130d7612db1565b5b600083013567ffffffffffffffff8111156130f6576130f5612db6565b5b6131028582860161306b565b92509250509250929050565b60008060006060848603121561312757613126612db1565b5b600061313586828701613007565b935050602061314686828701613007565b925050604061315786828701612f52565b9150509250925092565b600080fd5b7f4e487b7100000000000000000000000000000000000000000000000000000000600052604160045260246000fd5b61319e82612ec5565b810181811067ffffffffffffffff821117156131bd576131bc613166565b5b80604052505050565b60006131d0612da7565b90506131dc8282613195565b919050565b600067ffffffffffffffff8211156131fc576131fb613166565b5b61320582612ec5565b9050602081019050919050565b82818337600083830152505050565b600061323461322f846131e1565b6131c6565b9050828152602081018484840111156132505761324f613161565b5b61325b848285613212565b509392505050565b600082601f8301126132785761327761305c565b5b8135613288848260208601613221565b91505092915050565b6000602082840312156132a7576132a6612db1565b5b600082013567ffffffffffffffff8111156132c5576132c4612db6565b5b6132d184828501613263565b91505092915050565b6000602082840312156132f0576132ef612db1565b5b60006132fe84828501613007565b91505092915050565b61331081612f31565b82525050565b600060208201905061332b6000830184613307565b92915050565b600061333c82612f94565b9050919050565b61334c81613331565b82525050565b60006020820190506133676000830184613343565b92915050565b61337681612e40565b811461338157600080fd5b50565b6000813590506133938161336d565b92915050565b600080604083850312156133b0576133af612db1565b5b60006133be85828601613007565b92505060206133cf85828601613384565b9150509250929050565b600067ffffffffffffffff8211156133f4576133f3613166565b5b6133fd82612ec5565b9050602081019050919050565b600061341d613418846133d9565b6131c6565b90508281526020810184848401111561343957613438613161565b5b613444848285613212565b509392505050565b600082601f8301126134615761346061305c565b5b813561347184826020860161340a565b91505092915050565b6000806000806080858703121561349457613493612db1565b5b60006134a287828801613007565b94505060206134b387828801613007565b93505060406134c487828801612f52565b925050606085013567ffffffffffffffff8111156134e5576134e4612db6565b5b6134f18782880161344c565b91505092959194509250565b6000806000806040858703121561351757613516612db1565b5b600085013567ffffffffffffffff81111561353557613534612db6565b5b6135418782880161306b565b9450945050602085013567ffffffffffffffff81111561356457613563612db6565b5b6135708782880161306b565b925092505092959194509250565b6000806040838503121561359557613594612db1565b5b60006135a385828601613007565b92505060206135b485828601613007565b9150509250929050565b600081519050919050565b600082825260208201905092915050565b6000819050602082019050919050565b600082825260208201905092915050565b600061360682612e76565b61361081856135ea565b9350613620818560208601612e92565b61362981612ec5565b840191505092915050565b600061364083836135fb565b905092915050565b6000602082019050919050565b6000613660826135be565b61366a81856135c9565b93508360208202850161367c856135da565b8060005b858110156136b857848403895281516136998582613634565b94506136a483613648565b925060208a01995050600181019050613680565b50829750879550505050505092915050565b600060208201905081810360008301526136e48184613655565b905092915050565b7f4e487b7100000000000000000000000000000000000000000000000000000000600052602260045260246000fd5b6000600282049050600182168061373357607f821691505b60208210811415613747576137466136ec565b5b50919050565b7f4552433732313a20617070726f76616c20746f2063757272656e74206f776e6560008201527f7200000000000000000000000000000000000000000000000000000000000000602082015250565b60006137a9602183612e81565b91506137b48261374d565b604082019050919050565b600060208201905081810360008301526137d88161379c565b9050919050565b7f4552433732313a20617070726f76652063616c6c6572206973206e6f7420746f60008201527f6b656e206f776e6572206e6f7220617070726f76656420666f7220616c6c0000602082015250565b600061383b603e83612e81565b9150613846826137df565b604082019050919050565b6000602082019050818103600083015261386a8161382e565b9050919050565b600081905092915050565b60006138888385613871565b9350613895838584613212565b82840190509392505050565b60006138ae82848661387c565b91508190509392505050565b7f4552433732313a2063616c6c6572206973206e6f7420746f6b656e206f776e6560008201527f72206e6f7220617070726f766564000000000000000000000000000000000000602082015250565b6000613916602e83612e81565b9150613921826138ba565b604082019050919050565b6000602082019050818103600083015261394581613909565b9050919050565b600081905092915050565b50565b600061396760008361394c565b915061397282613957565b600082019050919050565b60006139888261395a565b9150819050919050565b7f4661696c656420746f207769746864726177204d617469630000000000000000600082015250565b60006139c8601883612e81565b91506139d382613992565b602082019050919050565b600060208201905081810360008301526139f7816139bb565b9050919050565b7f4552433732313a20696e76616c696420746f6b656e2049440000000000000000600082015250565b6000613a34601883612e81565b9150613a3f826139fe565b602082019050919050565b60006020820190508181036000830152613a6381613a27565b9050919050565b7f4552433732313a2061646472657373207a65726f206973206e6f74206120766160008201527f6c6964206f776e65720000000000000000000000000000000000000000000000602082015250565b6000613ac6602983612e81565b9150613ad182613a6a565b604082019050919050565b60006020820190508181036000830152613af581613ab9565b9050919050565b6000613b0782612e76565b613b118185613871565b9350613b21818560208601612e92565b80840191505092915050565b6000613b398285613afc565b9150613b458284613afc565b91508190509392505050565b7f4e6f7420656e6f756768204d6174696320706169640000000000000000000000600082015250565b6000613b87601583612e81565b9150613b9282613b51565b602082019050919050565b60006020820190508181036000830152613bb681613b7a565b9050919050565b7f2e00000000000000000000000000000000000000000000000000000000000000600082015250565b6000613bf3600183613871565b9150613bfe82613bbd565b600182019050919050565b60008190508160005260206000209050919050565b60008154613c2b8161371b565b613c358186613871565b94506001821660008114613c505760018114613c6157613c94565b60ff19831686528186019350613c94565b613c6a85613c09565b60005b83811015613c8c57815481890152600182019150602081019050613c6d565b838801955050505b50505092915050565b6000613caa82858761387c565b9150613cb582613be6565b9150613cc18284613c1e565b9150819050949350505050565b6000613cda8286613c1e565b9150613ce68285613afc565b9150613cf28284613c1e565b9150819050949350505050565b7f7b226e616d65223a202200000000000000000000000000000000000000000000600082015250565b6000613d35600a83613871565b9150613d4082613cff565b600a82019050919050565b7f222c20226465736372697074696f6e223a20224120646f6d61696e206f6e207460008201527f686520424c4f4343206e616d652073657276696365222c2022696d616765223a60208201527f2022646174613a696d6167652f7376672b786d6c3b6261736536342c00000000604082015250565b6000613dcd605c83613871565b9150613dd882613d4b565b605c82019050919050565b7f222c226c656e677468223a220000000000000000000000000000000000000000600082015250565b6000613e19600c83613871565b9150613e2482613de3565b600c82019050919050565b7f227d000000000000000000000000000000000000000000000000000000000000600082015250565b6000613e65600283613871565b9150613e7082613e2f565b600282019050919050565b6000613e8682613d28565b9150613e928286613afc565b9150613e9d82613dc0565b9150613ea98285613afc565b9150613eb482613e0c565b9150613ec08284613afc565b9150613ecb82613e58565b9150819050949350505050565b7f646174613a6170706c69636174696f6e2f6a736f6e3b6261736536342c000000600082015250565b6000613f0e601d83613871565b9150613f1982613ed8565b601d82019050919050565b6000613f2f82613f01565b9150613f3b8284613afc565b915081905092915050565b7f4e487b7100000000000000000000000000000000000000000000000000000000600052603260045260246000fd5b7f4e487b7100000000000000000000000000000000000000000000000000000000600052601160045260246000fd5b6000613faf82612f31565b91507fffffffffffffffffffffffffffffffffffffffffffffffffffffffffffffffff821415613fe257613fe1613f75565b5b600182019050919050565b600060408201905081810360008301526140078185612ed6565b9050818103602083015261401b8184612ed6565b90509392505050565b7f4552433732313a207472616e736665722066726f6d20696e636f72726563742060008201527f6f776e6572000000000000000000000000000000000000000000000000000000602082015250565b6000614080602583612e81565b915061408b82614024565b604082019050919050565b600060208201905081810360008301526140af81614073565b9050919050565b7f4552433732313a207472616e7366657220746f20746865207a65726f2061646460008201527f7265737300000000000000000000000000000000000000000000000000000000602082015250565b6000614112602483612e81565b915061411d826140b6565b604082019050919050565b6000602082019050818103600083015261414181614105565b9050919050565b600061415382612f31565b915061415e83612f31565b92508282101561417157614170613f75565b5b828203905092915050565b600061418782612f31565b915061419283612f31565b9250827fffffffffffffffffffffffffffffffffffffffffffffffffffffffffffffffff038211156141c7576141c6613f75565b5b828201905092915050565b7f4552433732313a20617070726f766520746f2063616c6c657200000000000000600082015250565b6000614208601983612e81565b9150614213826141d2565b602082019050919050565b60006020820190508181036000830152614237816141fb565b9050919050565b7f4552433732313a207472616e7366657220746f206e6f6e20455243373231526560008201527f63656976657220696d706c656d656e7465720000000000000000000000000000602082015250565b600061429a603283612e81565b91506142a58261423e565b604082019050919050565b600060208201905081810360008301526142c98161428d565b9050919050565b7f4e487b7100000000000000000000000000000000000000000000000000000000600052601260045260246000fd5b600061430a82612f31565b915061431583612f31565b925082614325576143246142d0565b5b828204905092915050565b600061433b82612f31565b915061434683612f31565b925082614356576143556142d0565b5b828206905092915050565b6000608082019050818103600083015261437b8187612ed6565b9050818103602083015261438f8186612ed6565b905081810360408301526143a38185612ed6565b90506143b26060830184613307565b95945050505050565b60006143c682612f31565b91506143d183612f31565b9250817fffffffffffffffffffffffffffffffffffffffffffffffffffffffffffffffff048311821515161561440a57614409613f75565b5b828202905092915050565b7f45524337323155524953746f726167653a2055524920736574206f66206e6f6e60008201527f6578697374656e7420746f6b656e000000000000000000000000000000000000602082015250565b6000614471602e83612e81565b915061447c82614415565b604082019050919050565b600060208201905081810360008301526144a081614464565b9050919050565b600060608201905081810360008301526144c18186612ed6565b90506144d06020830185613307565b81810360408301526144e28184612ed6565b9050949350505050565b600081519050919050565b600082825260208201905092915050565b6000614513826144ec565b61451d81856144f7565b935061452d818560208601612e92565b61453681612ec5565b840191505092915050565b60006080820190506145566000830187612fc6565b6145636020830186612fc6565b6145706040830185613307565b81810360608301526145828184614508565b905095945050505050565b60008151905061459c81612de7565b92915050565b6000602082840312156145b8576145b7612db1565b5b60006145c68482850161458d565b91505092915050565b7f4552433732313a206d696e7420746f20746865207a65726f2061646472657373600082015250565b6000614605602083612e81565b9150614610826145cf565b602082019050919050565b60006020820190508181036000830152614634816145f8565b9050919050565b7f4552433732313a20746f6b656e20616c7265616479206d696e74656400000000600082015250565b6000614671601c83612e81565b915061467c8261463b565b602082019050919050565b600060208201905081810360008301526146a081614664565b905091905056fe0a2d2d2d2d2d2d2d2d2d2d2d2d2d2d2d2d2d2d2d2d2d2d2d2d2d2d2d2d2d2d2d2d2d2d2d2d2d2d2d2d2d2d2d2d2d2d2d2d2d2d2d2d2d2d2d2d5265676973746572696e672025732e2573206f6e2074686520636f6e7472616374207769746820746f6b656e49442025642d2d2d2d2d2d2d2d2d2d2d2d2d2d2d2d2d2d2d2d2d2d2d2d2d2d2d2d2d2d2d2d2d2d2d2d2d2d2d2d2d2d2d2d2d2d2d2d2d2d2d2d2d2d2d2d0a4142434445464748494a4b4c4d4e4f505152535455565758595a6162636465666768696a6b6c6d6e6f707172737475767778797a303132333435363738392b2fa2646970667358221220457c672eb82b9f8a730b56ea91b49d0b20d3c5843492bf9878a1418de57698a764736f6c634300080a00333c73766720786d6c6e733d22687474703a2f2f7777772e77332e6f72672f323030302f737667222077696474683d2232373022206865696768743d22323730222066696c6c3d226e6f6e65223e3c706174682066696c6c3d2275726c282342292220643d224d302030683237307632373048307a222f3e3c646566733e3c66696c7465722069643d22412220636f6c6f722d696e746572706f6c6174696f6e2d66696c746572733d2273524742222066696c746572556e6974733d227573657253706163654f6e55736522206865696768743d22323730222077696474683d22323730223e3c666544726f70536861646f772064783d2230222064793d22312220737464446576696174696f6e3d22322220666c6f6f642d6f7061636974793d222e323235222077696474683d223230302522206865696768743d2232303025222f3e3c2f66696c7465723e3c2f646566733e3c7061746820643d224d37322e3836332034322e393439632d2e3636382d2e3338372d312e3432362d2e35392d322e3139372d2e3539732d312e3532392e3230342d322e3139372e35396c2d31302e30383120362e3033322d362e383520332e3933342d31302e30383120362e303332632d2e3636382e3338372d312e3432362e35392d322e3139372e3539732d312e3532392d2e3230342d322e3139372d2e35396c2d382e3031332d342e37323161342e353220342e35322030203020312d312e3538392d312e363136632d2e3338342d2e3636352d2e3539342d312e3431382d2e3630382d322e313837762d392e3331632d2e3031332d2e3737352e3138352d312e3533382e3537322d322e32303861342e323520342e323520302030203120312e3632352d312e3539356c372e3838342d342e3539632e3636382d2e33383720312e3432362d2e353920322e3139372d2e353973312e3532392e32303420322e3139372e35396c372e38383420342e353961342e353220342e353220302030203120312e35383920312e363136632e3338342e3636352e35393420312e3431382e36303820322e31383776362e3033326c362e38352d342e303635762d362e303332632e3031332d2e3737352d2e3138352d312e3533382d2e3537322d322e32303861342e323520342e32352030203020302d312e3632352d312e3539354c34312e3435362032342e3539632d2e3636382d2e3338372d312e3432362d2e35392d322e3139372d2e3539732d312e3532392e3230342d322e3139372e35396c2d31342e38363420382e36353561342e323520342e32352030203020302d312e36323520312e353935632d2e3338372e36372d2e35383520312e3433342d2e35373220322e3230387631372e343431632d2e3031332e3737352e31383520312e3533382e35373220322e32303861342e323520342e323520302030203020312e36323520312e3539356c31342e38363420382e363535632e3636382e33383720312e3432362e353920322e3139372e353973312e3532392d2e32303420322e3139372d2e35396c31302e3038312d352e39303120362e38352d342e3036352031302e3038312d352e393031632e3636382d2e33383720312e3432362d2e353920322e3139372d2e353973312e3532392e32303420322e3139372e35396c372e38383420342e353961342e353220342e353220302030203120312e35383920312e363136632e3338342e3636352e35393420312e3431382e36303820322e31383776392e333131632e3031332e3737352d2e31383520312e3533382d2e35373220322e32303861342e323520342e32352030203020312d312e36323520312e3539356c2d372e38383420342e373231632d2e3636382e3338372d312e3432362e35392d322e3139372e3539732d312e3532392d2e3230342d322e3139372d2e35396c2d372e3838342d342e353961342e353220342e35322030203020312d312e3538392d312e363136632d2e3338352d2e3636352d2e3539342d312e3431382d2e3630382d322e313837762d362e3033326c2d362e383520342e30363576362e303332632d2e3031332e3737352e31383520312e3533382e35373220322e32303861342e323520342e323520302030203020312e36323520312e3539356c31342e38363420382e363535632e3636382e33383720312e3432362e353920322e3139372e353973312e3532392d2e32303420322e3139372d2e35396c31342e3836342d382e363535632e3635372d2e33393420312e3230342d2e393520312e3538392d312e363136732e3539342d312e3431382e3630392d322e3138375635352e353338632e3031332d2e3737352d2e3138352d312e3533382d2e3537322d322e32303861342e323520342e32352030203020302d312e3632352d312e3539356c2d31342e3939332d382e3738367a222066696c6c3d2223666666222f3e3c646566733e3c6c696e6561724772616469656e742069643d2242222078313d2230222079313d2230222078323d22323730222079323d2232373022206772616469656e74556e6974733d227573657253706163654f6e557365223e3c73746f702073746f702d636f6c6f723d2223636235656565222f3e3c73746f70206f66667365743d2231222073746f702d636f6c6f723d2223306364376534222073746f702d6f7061636974793d222e3939222f3e3c2f6c696e6561724772616469656e743e3c2f646566733e3c7465787420783d2233322e352220793d223233312220666f6e742d73697a653d223237222066696c6c3d2223666666222066696c7465723d2275726c282341292220666f6e742d66616d696c793d22506c7573204a616b617274612053616e732c44656a6156752053616e732c4e6f746f20436f6c6f7220456d6f6a692c4170706c6520436f6c6f7220456d6f6a692c73616e732d73657269662220666f6e742d7765696768743d22626f6c64223e",
  "linkReferences": {},
  "deployedLinkReferences": {}
}